:020000040800F2
:10000000900F0020D101000885090008950600081E
:10001000810900088D030008D30F000800000000CC
:100020000000000000000000000000003B0C000881
:1000300091030008000000000D0A00084D0D0008A3
:10004000EB010008EB010008EB010008EB010008E0
:10005000EB010008EB010008EB010008EB010008D0
:10006000EB010008EB010008EB010008EB010008C0
:10007000EB010008EB010008EB010008EB010008B0
:10008000EB010008EB010008EB010008EB010008A0
:10009000EB010008EB010008EB010008EB01000890
:1000A000EB010008EB010008EB010008EB01000880
:1000B000EB010008EB010008EB010008EB01000870
:1000C000EB010008EB010008EB010008EB01000860
:1000D000EB010008B10D0008EB010008EB0100087E
:1000E000EB010008EB010008EB010008EB01000840
:1000F000EB010008EB010008EB010008EB01000830
:10010000EB010008EB010008EB010008EB0100081F
:10011000EB010008EB010008EB010008EB0100080F
:10012000EB010008EB010008EB010008EB010008FF
:1001300000F002F800F03CF80AA090E8000C8244BD
:100140008344AAF10107DA4501D100F031F8AFF29A
:10015000090EBAE80F0013F0010F18BFFB1A43F0A5
:10016000010318472C1200004C120000103A24BF63
:1001700078C878C1FAD8520724BF30C830C144BF0C
:1001800004680C607047000000230024002500264E
:10019000103A28BF78C1FBD8520728BF30C148BFEA
:1001A0000B607047002070471FB51FBD10B510BD14
:1001B00000F0BCF81146FFF7F7FF00F08BFF00F0EE
:1001C000DAF803B4FFF7F2FF03BC00F004FF00000D
:1001D0000948804709480047FEE7FEE7FEE7FEE7DB
:1001E000FEE7FEE7FEE7FEE7FEE7FEE70448054917
:1001F000054A064B70470000510D00083101000808
:1002000090090020900F0020900B0020900B002000
:10021000704700000FB4044910B503AA029800F01B
:100220006FF810BC5DF814FB2C0000200FB41CB557
:10023000074B06AA7B4469460090059800F047F8F2
:100240000020694600F056F81CBC5DF814FB000065
:10025000BD0000002DE9F0410E460446002020625A
:100260002046E168884730B3252805D0D4E901212C
:100270009047206A401CF2E7E16820460027884743
:10028000050018D0A5F14100192802D820354FF4F7
:1002900000673246294620462760FFF783FF40B1BA
:1002A000012804D0F61D26F007060836D8E7361DCB
:1002B000D6E72846DAE7206ABDE8F0817047704744
:1002C0007047704701694A1C02610878704700B5A1
:1002D0008FB0CDE901310021059105497944CDE97F
:1002E000031011466846FFF7B5FF0FB000BD0000D0
:1002F000E5FFFFFF0A6802F8010B0A607047000083
:10030000074B70B50D467B44FFF7E1FF04462846D6
:1003100000F008F810B14FF0FF3070BD204670BDFE
:10032000AF0D0000007B00F080007047754600F0C4
:1003300029F8AE4605006946534620F00700854679
:1003400018B020B5FFF752FFBDE820404FF000067F
:100350004FF000074FF000084FF0000B21F00701AD
:10036000AC46ACE8C009ACE8C009ACE8C009ACE8F0
:10037000C0098D4670470446AFF300802046FFF762
:1003800020FF0000004870473009002000BFFEE752
:100390007047000030B5044604254FF4302000F0CB
:1003A0006FF80546042D17D10C48006940F0020093
:1003B0000A49086108464461006940F0400008614C
:1003C0004FF4302000F05CF805460448006941F61F
:1003D000FD71084001490861284630BD00200240F7
:1003E00004200B49C96801F0010109B101200EE0A8
:1003F0000749C96801F0040109B1022007E0044976
:10040000C96801F0100109B1032000E00420704721
:10041000002002400348006940F080000149086163
:10042000704700000020024070B504460D460426C7
:10043000F00200F025F80646042E11D109480069A3
:1004400040F00100074908612580F00200F018F82B
:1004500006460448006941F6FE71084001490861FA
:10046000304670BD002002400248034948600348FE
:10047000486070472301674500200240AB89EFCDFB
:1004800000B502460423FFF7ABFF034603E0FFF786
:10049000A7FF0346521E012B01D1002AF7D102B952
:1004A0000523184600BD2DE9F0410246002500262F
:1004B000002000230024002791F803C00CF00F0552
:1004C00091F803C00CF0100CBCF1000F03D091F8B0
:1004D00002C04CEA050591F800C0BCF1000F31D014
:1004E000146800202BE04FF0010C0CFA00F3B1F877
:1004F00000C00CEA03069E4220D183004FF00F0C8F
:100500000CFA03F7BC4305FA03FC4CEA040491F827
:1005100003C0BCF1280F06D14FF0010C0CFA00FC0F
:10052000C2F814C00AE091F803C0BCF1480F05D12D
:100530004FF0010C0CFA00FCC2F810C0401C082857
:10054000D1D31460B1F800C0BCF1FF0F34DD5468A2
:1005500000202EE000F1080C4FF0010808FA0CF31F
:10056000B1F800C00CEA03069E4221D183004FF08F
:100570000F0C0CFA03F7BC4305FA03FC4CEA040425
:1005800091F803C0BCF1280F05D100F1080C08FA5E
:100590000CF8C2F8148091F803C0BCF1480F07D1E1
:1005A00000F1080C4FF0010808FA0CF8C2F81080AE
:1005B000401C0828CED35460BDE8F08102460020DC
:1005C00093680B400BB1012000E0002070474161AF
:1005D000704701617047000010B5044601212C48A6
:1005E000FFF7F5FF02212A48FFF7F1FF0421284811
:1005F000FFF7EDFF08212648FFF7E9FF1021244807
:10060000FFF7E5FF20212248FFF7E1FF40212048C6
:10061000FFF7DDFF80211E48FFF7D9FF04F001003E
:1006200018B101211A48FFF7D4FF04F0020018B1F5
:1006300002211748FFF7CDFF04F0040018B1042190
:100640001348FFF7C6FF04F0080018B1082110484E
:10065000FFF7BFFF04F0100018B110210C48FFF79E
:10066000B8FF04F0200018B120210948FFF7B1FFBE
:1006700004F0400018B140210548FFF7AAFF04F03C
:10068000800018B180210248FFF7A3FF10BD0000D1
:100690000014014000BFFEE708B50121402000F032
:1006A000B7F91820ADF8000048208DF8030069461E
:1006B0000148FFF7F8FE08BD0018014010B50446D8
:1006C00014B101201949087018480078E8B11021C8
:1006D0001748FFF773FF20B108211548FFF76EFF99
:1006E00098B90A2000F09CFC0020104908701021E5
:1006F0000F48FFF763FF08B9012010BD08210C481F
:10070000FFF75CFF78B90220F7E710210848FFF7F0
:1007100055FF012807D108210548FFF74FFF0128A1
:1007200001D1024908700020E7E700002400002002
:100730000018014008B50121402000F069F922208D
:10074000ADF8000010208DF8030003208DF80200A2
:1007500069460448FFF7A7FE20210248FFF739FF4A
:1007600008BD00000018014038B5002401212020F8
:1007700000F04EF9FF20ADF8000048208DF803008E
:1007800003208DF8020069461548FFF78CFE2021F2
:100790001448FFF71CFF03E0052000F067FC641C11
:1007A00080210F48FFF70AFF18B144F62060844209
:1007B000F2D380210B48FFF70AFF0121202000F02F
:1007C00027F9FF20ADF8000010208DF8030003206A
:1007D0008DF8020069460248FFF765FE38BD00004B
:1007E000001401400010014010B580210548FFF7BA
:1007F000F0FE052000F03AFC80210248FFF7E7FEFA
:1008000010BD00000010014008B50121202000F0BB
:10081000FFF8FF20ADF8000010208DF80300032042
:100820008DF8020069461348FFF73DFE01211020B4
:1008300000F0EEF84020ADF8000010208DF8030025
:1008400003208DF8020069460B48FFF72CFE0121BA
:10085000102000F0DDF82020ADF8000010208DF809
:10086000030003208DF8020069460348FFF71BFED2
:1008700008BD0000001401400010014010B5FFF752
:10088000C3FF40F2DC5000F0F1FB0021382000F003
:1008900049F84FF4FA7000F0E9FB0021382000F02D
:1008A00041F84FF4FA7000F0E1FB0021382000F02D
:1008B00039F80121382000F035F80121082000F036
:1008C00031F80121084600F02DF80121062000F042
:1008D00029F801210C2000F025F810BD70B505465F
:1008E0000E4614463146284600F009F803E0207809
:1008F00000F030F8641C20780028F8D170BD70B585
:1009000006460C461CB906F18000C5B204E0012C75
:1009100002D106F1C000C5B20121284600F002F85C
:1009200070BD000070B505460C460CB1FFF71CFF0A
:1009300020210748FFF74BFE40210548FFF747FEFF
:100940002846FFF749FEFFF74FFFFFF70DFF70BD89
:100950000010014010B50446FFF706FF20210748AC
:10096000FFF737FE40210548FFF731FE2046FFF72D
:1009700033FEFFF739FFFFF7F7FE10BD001001400F
:1009800000BFFEE77047000070B5002100230F2272
:10099000C47804B3154C246804F4E064C4F5E0643E
:1009A000210AC1F10403CA40447804FA03F18478AF
:1009B0001440214309010E4C0678A155047804F037
:1009C0001F050124AC4005786D11AD0005F1E0254F
:1009D000C5F8004109E0047804F01F050124AC408B
:1009E000044D0678761145F8264070BD0CED00E008
:1009F00000E400E080E100E002490143024A1160A6
:100A0000704700000000FA050CED00E070470000A0
:100A100029B1064A92690243044B9A6104E0034AF1
:100A200092698243014B9A617047000000100240B6
:100A300030B500210022002400232D4D6D6805F003
:100A40000C0121B1042905D0082923D105E0294D45
:100A5000056022E0274D05601FE0254D6D6805F417
:100A60007012234D6D6805F48034022505EB924227
:100A70001CB9214D554305600BE01D4D6D6805F413
:100A800000351DB11C4D5543056002E0194D55431D
:100A9000056002E0174D056000BF00BF144D6D6892
:100AA00005F0F0010909154D6B5C0568DD404560F6
:100AB0000F4D6D6805F4E061090A104D6B5C4568E7
:100AC000DD4085600A4D6D6805F46051C90A0B4D23
:100AD0006B5C4568DD40C560054D6D6805F44041BF
:100AE000890B074D6B5CC568B5FBF3F5056130BD3F
:100AF0000010024000127A0000093D003200002080
:100B00004200002030B503460C461546002207E09F
:100B1000184600F008F824F812009B1C501C82B202
:100B2000AA42F5DB30BD0146088870472DE9F05F29
:100B300080468A461746B8F1006F02D33348804595
:100B400001D3BDE8F09FFFF78FFCA8F1006B4FEADF
:100B5000DB25CBF34909C9F58064A74200DC3C469C
:100B60004DE04FF0006101EBC5204A142849FFF722
:100B7000C9FF00260BE009EB0600254931F81000FB
:100B80004FF6FF71884200D003E0701C86B2A64287
:100B9000F1DB00BFA6421BDA4FF0006101EBC5207C
:100BA000FFF7F8FB002608E03AF8160006EB09010B
:100BB000174A22F81100701C86B2A642F4DB4FF0EF
:100BC000006101EBC5204A14114900F023F804E04C
:100BD00022465146404600F01DF8A74200D10FE0E2
:100BE0006D1C4FF000090AEB440AA044381B87B281
:100BF000B7F5806F02DD4FF4806400E03C46B0E75B
:100C000000BFFFF707FC00BF9BE7000000000808DB
:100C1000680000202DE9F04105460E4617460024E5
:100C200007E036F814102846FFF7FEFBAD1C601CE9
:100C300084B2BC42F5DBBDE8F081704710B500F02E
:100C400001F810BD0CB500200190009033480068F9
:100C500040F480303149086000BF3048006800F43B
:100C6000003000900198401C0190009818B901983C
:100C7000B0F5A06FF1D12948006800F4003010B140
:100C80000120009001E0002000900098012843D14D
:100C90002348006840F010002149086008460068B9
:100CA00020F0030008600846006840F00200086079
:100CB0001A48406819494860084640684860084634
:100CC000406840F4806048600846406820F47C102A
:100CD00048600846406840F4E810486008460068EC
:100CE00040F08070086000BF0C48006800F00070A1
:100CF0000028F9D00948406820F0030007494860FF
:100D00000846406840F00200486000BF0348406861
:100D100000F00C000828F9D10CBD000000100240C2
:100D200000200240042808D14FF0E021096941F079
:100D300004014FF0E022116107E04FF0E021096962
:100D400021F004014FF0E02211617047704700006C
:100D500010B51348006840F00100114908600846CA
:100D60004068104908400E494860084600680E492E
:100D700008400B4908600846006820F4802008609D
:100D80000846406820F4FE0048604FF41F00886069
:100D9000FFF754FF4FF000600449086010BD0000E9
:100DA000001002400000FFF8FFFFF6FE08ED00E033
:100DB00010B540F225511D4800F04AF810B31B4809
:100DC00000F002F9C4B21A48008800F40040C8B923
:100DD0001748008800F4804060B10A2C03D000203E
:100DE0001349088020E01248008840F40040104970
:100DF000088019E00D2C06D10D48008840F4804091
:100E00000B49088010E00A480088C0F30D0009492A
:100E10000C5407480088401C054908800846008893
:100E2000C72801DD0020088010BD00000038014007
:100E3000300000206808002021B1828942F400526D
:100E4000828104E082894DF6FF731A4082817047E7
:100E500070B50246002400230025002040F66A16E3
:100E6000B14200D100BFC1F3421501F01F030126BA
:100E700006FA03F3012D02D19689334006E0022DD4
:100E800002D1168A334001E0968A33400C120126C3
:100E900006FA04F41688344013B10CB1012000E0C6
:100EA000002070BDF0B50346002400260025002078
:100EB00040F66A17B94200D100BF1846C1F3421488
:100EC00001F01F06012707FA06F5012C01D10C30AD
:100ED00004E0022C01D1103000E014301AB1076890
:100EE0002F43076002E00768AF430760F0BD0000D2
:100EF0002DE9F04786B005460E460024A24600BF05
:100F0000A1460027B08900B100BF2F462C8A4CF6BD
:100F1000FF700440F08804432C82AC894EF6F31035
:100F20000440B08831890843718908430443AC8187
:100F3000AC8A4FF6FF400440B0890443AC8201A85C
:100F4000FFF776FD1F48874202D1DDF810A001E0CF
:100F5000DDF80CA0A88900F4004040B10AEBCA00FB
:100F600000EB0A1031684900B0FBF1F807E00AEB2A
:100F7000CA0000EB0A1031688900B0FBF1F8642068
:100F8000B8FBF0F004012009642101FB1089A88955
:100F900000F4004040B1322000EBC900B0FBF1F09A
:100FA00000F00700044308E0322000EB0910642140
:100FB000B0FBF1F000F00F0004432C8106B0BDE857
:100FC000F08700000038014001468888C0F308001F
:100FD000704700BFFEE700BF7047000010B56FF01C
:100FE0000400FFF79FFE0A4800680A49B0FBF1F0D1
:100FF000094908700846007800EB4001C1EBC010B9
:101000004FF6FF7101EAC0000449088010BD0000DE
:101010001000002000127A00260000202800002086
:101020000146114A12884A434FF0E0235A610022D8
:101030009A611A46126942F001021A6100BF4FF02C
:10104000E022106900F001021AB100F48032002A97
:10105000F5D04FF0E022126922F001024FF0E023B8
:101060001A6100229A617047280000200146114A47
:1010700012784A434FF0E0235A6100229A611A46DF
:10108000126942F001021A6100BF4FF0E0221069BC
:1010900000F001021AB100F48032002AF5D04FF0BE
:1010A000E022126922F001024FF0E0231A610022CF
:1010B0009A6170472600002000BF054A128802F09E
:1010C0004002002AF9D0C2B2014B1B1D1A807047A2
:1010D000003801401FB500250026FFF77FFF4FF4C1
:1010E000A060FFF789FC4FF4E13000F001F9FFF751
:1010F00021FBFFF7D1FAFFF787FBFFF7BFFB56A1F4
:101100005948FFF793F8584A00210846FFF7E6FBD5
:101110004FF4FA60FFF784FF9DE00020FFF7CEFA5E
:101120000446022C10D10D2250495148FFF7FEFC15
:1011300050A15448FFF77AF8524A01210020FFF7E6
:10114000CDFB002050490860012C15D10D226946C5
:101150004748FFF7D7FC4DA14348FFF767F8424ADD
:1011600000210846FFF7BAFB6A4601210020FFF77D
:10117000B5FB0020444908604648008800F4004060
:10118000002852D000204349088043480078FF28B7
:101190002CD1414890F801808778002506E03E492F
:1011A000E81C085C31494855681CC5B2BD42F6DBF5
:1011B0000D222E494046FFF7B9FC0D2269464046F4
:1011C000FFF7A0FC35A0FFF725F83BA12648FFF765
:1011D0002DF8254A00210846FFF780FB6A460121C9
:1011E0000020FFF77BFB0020274908602A48007891
:1011F000D8B9294890F80180052269464046FFF792
:1012000081FC30A0FFF706F835A11748FFF70EF86C
:10121000154A00210846FFF761FB6A4601210020BC
:10122000FFF75CFB002018490860701C86B20A209A
:10123000FFF7F6FE642E0ED113481030006808B98F
:10124000012000E0002010491031086001202749EA
:10125000C1F88401002660E74B455931A3BA5720F5
:101260004B455930A3BA520048000020000000202E
:101270000000070857726974652046696E697368D3
:101280006564210058000020840123424461746198
:101290003A2000003000002068080020B3C9B9A639
:1012A000CDF9464C415348B5D8D6B7D0B4C8EBCAEF
:1012B000FDBEDD0D0A00000057726974654461745B
:1012C000613A2000B3C9B9A6B4D3464C415348B5DE
:1012D000D8D6B7B6C1B3F6CAFDBEDD0D0A00000010
:1012E00052656164446174613A2000000000234249
:1012F00010B586B00446012144F20400FFF788FBD4
:101300004FF40070ADF8140003208DF8160018207B
:101310008DF8170005A91C48FFF7C5F84FF4806049
:10132000ADF8140004208DF8170005A91648FFF742
:10133000BAF825208DF8000003208DF801008DF803
:10134000020001208DF803006846FFF71DFB0194A1
:101350000020ADF80800ADF80A00ADF80C00ADF8BB
:1013600010000C20ADF80E0001A90848FFF7C0FDE1
:10137000012240F225510548FFF794FD0121034861
:10138000FFF75AFD06B010BD0008014000380140CB
:10139000B013000800000020480000006C010008A5
:1013A000F813000848000020480F000088010008DA
:1013B0004C69446F6E67436875616E67000000009A
:1013C00000A24A0400000000000000000102030423
:1013D00006070809010000000000000000000000EE
:1013E00000000000000001020304010203040607DC
:0813F0000809020406080000D0
:0400000508000131BD
:00000001FF
